{
  "_format": "hh-sol-artifact-1",
  "contractName": "DappVotes",
  "sourceName": "contracts/DappVotes.sol",
  "abi": [
    {
      "anonymous": false,
      "inputs": [
        {
          "indexed": true,
          "internalType": "address",
          "name": "voter",
          "type": "address"
        },
        {
          "indexed": false,
          "internalType": "uint256",
          "name": "timestamp",
          "type": "uint256"
        }
      ],
      "name": "Voted",
      "type": "event"
    },
    {
      "inputs": [
        {
          "internalType": "uint256",
          "name": "id",
          "type": "uint256"
        },
        {
          "internalType": "string",
          "name": "name",
          "type": "string"
        },
        {
          "internalType": "string",
          "name": "image",
          "type": "string"
        }
      ],
      "name": "contest",
      "outputs": [],
      "stateMutability": "nonpayable",
      "type": "function"
    },
    {
      "inputs": [
        {
          "internalType": "string",
          "name": "image",
          "type": "string"
        },
        {
          "internalType": "string",
          "name": "title",
          "type": "string"
        },
        {
          "internalType": "string",
          "name": "description",
          "type": "string"
        },
        {
          "internalType": "uint256",
          "name": "startsAt",
          "type": "uint256"
        },
        {
          "internalType": "uint256",
          "name": "endsAt",
          "type": "uint256"
        }
      ],
      "name": "createPoll",
      "outputs": [],
      "stateMutability": "nonpayable",
      "type": "function"
    },
    {
      "inputs": [
        {
          "internalType": "uint256",
          "name": "id",
          "type": "uint256"
        }
      ],
      "name": "deletePoll",
      "outputs": [],
      "stateMutability": "nonpayable",
      "type": "function"
    },
    {
      "inputs": [
        {
          "internalType": "uint256",
          "name": "id",
          "type": "uint256"
        },
        {
          "internalType": "uint256",
          "name": "cid",
          "type": "uint256"
        }
      ],
      "name": "getContestant",
      "outputs": [
        {
          "components": [
            {
              "internalType": "uint256",
              "name": "id",
              "type": "uint256"
            },
            {
              "internalType": "string",
              "name": "image",
              "type": "string"
            },
            {
              "internalType": "string",
              "name": "name",
              "type": "string"
            },
            {
              "internalType": "address",
              "name": "voter",
              "type": "address"
            },
            {
              "internalType": "uint256",
              "name": "votes",
              "type": "uint256"
            },
            {
              "internalType": "address[]",
              "name": "voters",
              "type": "address[]"
            }
          ],
          "internalType": "struct DappVotes.ContestantStruct",
          "name": "",
          "type": "tuple"
        }
      ],
      "stateMutability": "view",
      "type": "function"
    },
    {
      "inputs": [
        {
          "internalType": "uint256",
          "name": "id",
          "type": "uint256"
        }
      ],
      "name": "getContestants",
      "outputs": [
        {
          "components": [
            {
              "internalType": "uint256",
              "name": "id",
              "type": "uint256"
            },
            {
              "internalType": "string",
              "name": "image",
              "type": "string"
            },
            {
              "internalType": "string",
              "name": "name",
              "type": "string"
            },
            {
              "internalType": "address",
              "name": "voter",
              "type": "address"
            },
            {
              "internalType": "uint256",
              "name": "votes",
              "type": "uint256"
            },
            {
              "internalType": "address[]",
              "name": "voters",
              "type": "address[]"
            }
          ],
          "internalType": "struct DappVotes.ContestantStruct[]",
          "name": "Contestants",
          "type": "tuple[]"
        }
      ],
      "stateMutability": "view",
      "type": "function"
    },
    {
      "inputs": [
        {
          "internalType": "uint256",
          "name": "id",
          "type": "uint256"
        }
      ],
      "name": "getPoll",
      "outputs": [
        {
          "components": [
            {
              "internalType": "uint256",
              "name": "id",
              "type": "uint256"
            },
            {
              "internalType": "string",
              "name": "image",
              "type": "string"
            },
            {
              "internalType": "string",
              "name": "title",
              "type": "string"
            },
            {
              "internalType": "string",
              "name": "description",
              "type": "string"
            },
            {
              "internalType": "uint256",
              "name": "votes",
              "type": "uint256"
            },
            {
              "internalType": "uint256",
              "name": "contestants",
              "type": "uint256"
            },
            {
              "internalType": "bool",
              "name": "deleted",
              "type": "bool"
            },
            {
              "internalType": "address",
              "name": "director",
              "type": "address"
            },
            {
              "internalType": "uint256",
              "name": "startsAt",
              "type": "uint256"
            },
            {
              "internalType": "uint256",
              "name": "endsAt",
              "type": "uint256"
            },
            {
              "internalType": "uint256",
              "name": "timestamp",
              "type": "uint256"
            },
            {
              "internalType": "address[]",
              "name": "voters",
              "type": "address[]"
            },
            {
              "internalType": "string[]",
              "name": "avatars",
              "type": "string[]"
            }
          ],
          "internalType": "struct DappVotes.PollStruct",
          "name": "",
          "type": "tuple"
        }
      ],
      "stateMutability": "view",
      "type": "function"
    },
    {
      "inputs": [],
      "name": "getPolls",
      "outputs": [
        {
          "components": [
            {
              "internalType": "uint256",
              "name": "id",
              "type": "uint256"
            },
            {
              "internalType": "string",
              "name": "image",
              "type": "string"
            },
            {
              "internalType": "string",
              "name": "title",
              "type": "string"
            },
            {
              "internalType": "string",
              "name": "description",
              "type": "string"
            },
            {
              "internalType": "uint256",
              "name": "votes",
              "type": "uint256"
            },
            {
              "internalType": "uint256",
              "name": "contestants",
              "type": "uint256"
            },
            {
              "internalType": "bool",
              "name": "deleted",
              "type": "bool"
            },
            {
              "internalType": "address",
              "name": "director",
              "type": "address"
            },
            {
              "internalType": "uint256",
              "name": "startsAt",
              "type": "uint256"
            },
            {
              "internalType": "uint256",
              "name": "endsAt",
              "type": "uint256"
            },
            {
              "internalType": "uint256",
              "name": "timestamp",
              "type": "uint256"
            },
            {
              "internalType": "address[]",
              "name": "voters",
              "type": "address[]"
            },
            {
              "internalType": "string[]",
              "name": "avatars",
              "type": "string[]"
            }
          ],
          "internalType": "struct DappVotes.PollStruct[]",
          "name": "Polls",
          "type": "tuple[]"
        }
      ],
      "stateMutability": "view",
      "type": "function"
    },
    {
      "inputs": [
        {
          "internalType": "uint256",
          "name": "id",
          "type": "uint256"
        },
        {
          "internalType": "string",
          "name": "image",
          "type": "string"
        },
        {
          "internalType": "string",
          "name": "title",
          "type": "string"
        },
        {
          "internalType": "string",
          "name": "description",
          "type": "string"
        },
        {
          "internalType": "uint256",
          "name": "startsAt",
          "type": "uint256"
        },
        {
          "internalType": "uint256",
          "name": "endsAt",
          "type": "uint256"
        }
      ],
      "name": "updatePoll",
      "outputs": [],
      "stateMutability": "nonpayable",
      "type": "function"
    },
    {
      "inputs": [
        {
          "internalType": "uint256",
          "name": "id",
          "type": "uint256"
        },
        {
          "internalType": "uint256",
          "name": "cid",
          "type": "uint256"
        }
      ],
      "name": "vote",
      "outputs": [],
      "stateMutability": "nonpayable",
      "type": "function"
    }
  ],
  "bytecode": "0x608060405234801561001057600080fd5b50612578806100206000396000f3fe608060405234801561001057600080fd5b50600436106100935760003560e01c806366dd51dc1161006657806366dd51dc146100fe578063b384abef14610111578063cee9dc4514610124578063d343641114610144578063f0d0bc451461016457600080fd5b8063029433f014610098578063120fe89b146100ad5780631a8cbcaa146100cb5780631f35b51d146100eb575b600080fd5b6100ab6100a6366004611df7565b610177565b005b6100b5610463565b6040516100c29190612076565b60405180910390f35b6100de6100d93660046120d8565b6108de565b6040516100c291906120f1565b6100ab6100f93660046120d8565b610c60565b6100ab61010c36600461210b565b610d89565b6100ab61011f366004612178565b61104a565b6101376101323660046120d8565b61137b565b6040516100c29190612211565b610157610152366004612178565b61167f565b6040516100c29190612266565b6100ab610172366004612279565b61187a565b60008681526002602052604090205460ff166101ae5760405162461bcd60e51b81526004016101a590612313565b60405180910390fd5b60008681526003602052604090206006015461010090046001600160a01b031633146102305760405162461bcd60e51b815260206004820152602b60248201527f4f6e6c79207468652063726561746f72206f662074686520706f6c6c2063616e60448201526a207570646174652069742160a81b60648201526084016101a5565b600084511161027a5760405162461bcd60e51b81526020600482015260166024820152755469746c652063616e6e6f7420626520656d7074792160501b60448201526064016101a5565b60008351116102cb5760405162461bcd60e51b815260206004820152601c60248201527f4465736372697074696f6e2063616e6e6f7420626520656d707479210000000060448201526064016101a5565b600085511161031c5760405162461bcd60e51b815260206004820152601a60248201527f496d6167652055524c2063616e6e6f7420626520656d7074792100000000000060448201526064016101a5565b60008681526003602052604090206006015460ff161561037e5760405162461bcd60e51b815260206004820152601e60248201527f506f6c6c2068617320616c7265616479206265656e2064656c6574656421000060448201526064016101a5565b6000868152600360205260409020600401546001116103d95760405162461bcd60e51b8152602060048201526017602482015276506f6c6c20616c72656164792068617320766f7465732160481b60448201526064016101a5565b8181116103f85760405162461bcd60e51b81526004016101a590612341565b60008681526003602052604090206002016104138582612413565b506000868152600360208190526040909120016104308482612413565b506000868152600360205260409020600781018390556008810182905560010161045a8682612413565b50505050505050565b6060600060015b60005481116104ac5760008181526003602052604090206006015460ff1661049a5781610496816124e9565b9250505b806104a4816124e9565b91505061046a565b508067ffffffffffffffff8111156104c6576104c6611d54565b6040519080825280602002602001820160405280156104ff57816020015b6104ec611b7c565b8152602001906001900390816104e45790505b509150600060015b60005481116108d85760008181526003602052604090206006015460ff166108c65760036000828152602001908152602001600020604051806101a0016040529081600082015481526020016001820180546105629061238a565b80601f016020809104026020016040519081016040528092919081815260200182805461058e9061238a565b80156105db5780601f106105b0576101008083540402835291602001916105db565b820191906000526020600020905b8154815290600101906020018083116105be57829003601f168201915b505050505081526020016002820180546105f49061238a565b80601f01602080910402602001604051908101604052809291908181526020018280546106209061238a565b801561066d5780601f106106425761010080835404028352916020019161066d565b820191906000526020600020905b81548152906001019060200180831161065057829003601f168201915b505050505081526020016003820180546106869061238a565b80601f01602080910402602001604051908101604052809291908181526020018280546106b29061238a565b80156106ff5780601f106106d4576101008083540402835291602001916106ff565b820191906000526020600020905b8154815290600101906020018083116106e257829003601f168201915b505050918352505060048201546020808301919091526005830154604080840191909152600684015460ff8116151560608501526001600160a01b0361010091829004166080850152600785015460a0850152600885015460c0850152600985015460e0850152600a85018054835181860281018601909452808452919094019391928301828280156107bb57602002820191906000526020600020905b81546001600160a01b0316815260019091019060200180831161079d575b50505050508152602001600b8201805480602002602001604051908101604052809291908181526020016000905b828210156108955783829060005260206000200180546108089061238a565b80601f01602080910402602001604051908101604052809291908181526020018280546108349061238a565b80156108815780601f1061085657610100808354040283529160200191610881565b820191906000526020600020905b81548152906001019060200180831161086457829003601f168201915b5050505050815260200190600101906107e9565b505050915250859050836108a8816124e9565b9450815181106108ba576108ba612502565b60200260200101819052505b806108d0816124e9565b915050610507565b50505090565b6108e6611b7c565b60036000838152602001908152602001600020604051806101a00160405290816000820154815260200160018201805461091f9061238a565b80601f016020809104026020016040519081016040528092919081815260200182805461094b9061238a565b80156109985780601f1061096d57610100808354040283529160200191610998565b820191906000526020600020905b81548152906001019060200180831161097b57829003601f168201915b505050505081526020016002820180546109b19061238a565b80601f01602080910402602001604051908101604052809291908181526020018280546109dd9061238a565b8015610a2a5780601f106109ff57610100808354040283529160200191610a2a565b820191906000526020600020905b815481529060010190602001808311610a0d57829003601f168201915b50505050508152602001600382018054610a439061238a565b80601f0160208091040260200160405190810160405280929190818152602001828054610a6f9061238a565b8015610abc5780601f10610a9157610100808354040283529160200191610abc565b820191906000526020600020905b815481529060010190602001808311610a9f57829003601f168201915b505050918352505060048201546020808301919091526005830154604080840191909152600684015460ff8116151560608501526001600160a01b0361010091829004166080850152600785015460a0850152600885015460c0850152600985015460e0850152600a8501805483518186028101860190945280845291909401939192830182828015610b7857602002820191906000526020600020905b81546001600160a01b03168152600190910190602001808311610b5a575b50505050508152602001600b8201805480602002602001604051908101604052809291908181526020016000905b82821015610c52578382906000526020600020018054610bc59061238a565b80601f0160208091040260200160405190810160405280929190818152602001828054610bf19061238a565b8015610c3e5780601f10610c1357610100808354040283529160200191610c3e565b820191906000526020600020905b815481529060010190602001808311610c2157829003601f168201915b505050505081526020019060010190610ba6565b505050915250909392505050565b60008181526002602052604090205460ff16610c8e5760405162461bcd60e51b81526004016101a590612313565b60008181526003602052604090206006015461010090046001600160a01b03163314610d105760405162461bcd60e51b815260206004820152602b60248201527f4f6e6c79207468652063726561746f72206f662074686520706f6c6c2063616e60448201526a2064656c6574652069742160a81b60648201526084016101a5565b600081815260036020526040902060040154600111610d6b5760405162461bcd60e51b8152602060048201526017602482015276506f6c6c20616c72656164792068617320766f7465732160481b60448201526064016101a5565b6000908152600360205260409020600601805460ff19166001179055565b60008381526002602052604090205460ff16610db75760405162461bcd60e51b81526004016101a590612313565b6000825111610e005760405162461bcd60e51b81526020600482015260156024820152744e616d652063616e6e6f7420626520656d7074792160581b60448201526064016101a5565b6000815111610e4a5760405162461bcd60e51b8152602060048201526016602482015275496d6167652063616e6e6f7420626520656d7074792160501b60448201526064016101a5565b600083815260036020526040902060040154600111610eab5760405162461bcd60e51b815260206004820152601760248201527f506f6c6c2068617320766f74657320616c72656164792100000000000000000060448201526064016101a5565b600083815260056020908152604080832033845290915290205460ff1615610f155760405162461bcd60e51b815260206004820152601a60248201527f436f6e74657374616e7420616c7265616479206578697374732100000000000060448201526064016101a5565b610f23600180546001019055565b610f2b611bef565b6040818101849052602080830184815233606085015260018054855260008881526006845284812086518252909352929091208351815590518392820190610f739082612413565b5060408201516002820190610f889082612413565b5060608201516003820180546001600160a01b0319166001600160a01b039092169190911790556080820151600482015560a08201518051610fd4916005840191602090910190611c2e565b50505060008481526005602090815260408083203384528252808320805460ff1916600190811790915587845260038352908320600b018054918201815583529120016110218382612413565b50600084815260036020526040812060050180549161103f836124e9565b919050555050505050565b60008281526002602052604090205460ff1661109e5760405162461bcd60e51b8152602060048201526013602482015272141bdb1b08191bd95cc81b9bdd08195e1a5cdd606a1b60448201526064016101a5565b600082815260046020908152604080832033845290915290205460ff16156111085760405162461bcd60e51b815260206004820152601760248201527f596f75206861766520616c726561647920766f7465642100000000000000000060448201526064016101a5565b60008281526003602052604090206006015460ff16156111625760405162461bcd60e51b8152602060048201526015602482015274141bdb1b081a185cc81899595b8819195b195d1959605a1b60448201526064016101a5565b6000828152600360205260409020600501546001106111c35760405162461bcd60e51b815260206004820152601760248201527f4e6f7420656e6f75676820636f6e74657374616e74732100000000000000000060448201526064016101a5565b6000828152600360205260409020600701546111dd611b5d565b101580156112035750600082815260036020526040902060080154611200611b5d565b11155b6112655760405162461bcd60e51b815260206004820152602d60248201527f566f74696e672074696d652068617320656e646564206f7220686173206e6f7460448201526c2073746172746564207965742160981b60648201526084016101a5565b6000828152600360205260408120600401805491611282836124e9565b90915550506000828152600360209081526040808320600a0180546001810182559084528284200180546001600160a01b031916331790558483526006825280832084845290915281206004018054916112db836124e9565b9091555050600082815260066020908152604080832084845282528083206005018054600181810183559185528385200180546001600160a01b03191633908117909155868552600484528285208186529093529220805460ff19169092179091557f4d99b957a2bc29a30ebd96a7be8e68fe50a3c701db28a91436490b7d53870ca4611366611b5d565b60405190815260200160405180910390a25050565b6060600060015b60015481116113cc5760008481526006602090815260408083208484529091529020548190036113ba57816113b6816124e9565b9250505b806113c4816124e9565b915050611382565b508067ffffffffffffffff8111156113e6576113e6611d54565b60405190808252806020026020018201604052801561141f57816020015b61140c611bef565b8152602001906001900390816114045790505b509150600060015b6001548111611677576000858152600660209081526040808320848452909152902054819003611665576000858152600660209081526040808320848452825291829020825160c0810190935280548352600181018054919284019161148c9061238a565b80601f01602080910402602001604051908101604052809291908181526020018280546114b89061238a565b80156115055780601f106114da57610100808354040283529160200191611505565b820191906000526020600020905b8154815290600101906020018083116114e857829003601f168201915b5050505050815260200160028201805461151e9061238a565b80601f016020809104026020016040519081016040528092919081815260200182805461154a9061238a565b80156115975780601f1061156c57610100808354040283529160200191611597565b820191906000526020600020905b81548152906001019060200180831161157a57829003601f168201915b505050505081526020016003820160009054906101000a90046001600160a01b03166001600160a01b03166001600160a01b03168152602001600482015481526020016005820180548060200260200160405190810160405280929190818152602001828054801561163257602002820191906000526020600020905b81546001600160a01b03168152600190910190602001808311611614575b505050505081525050848380611647906124e9565b94508151811061165957611659612502565b60200260200101819052505b8061166f816124e9565b915050611427565b505050919050565b611687611bef565b6000838152600660209081526040808320858452825291829020825160c081019093528054835260018101805491928401916116c29061238a565b80601f01602080910402602001604051908101604052809291908181526020018280546116ee9061238a565b801561173b5780601f106117105761010080835404028352916020019161173b565b820191906000526020600020905b81548152906001019060200180831161171e57829003601f168201915b505050505081526020016002820180546117549061238a565b80601f01602080910402602001604051908101604052809291908181526020018280546117809061238a565b80156117cd5780601f106117a2576101008083540402835291602001916117cd565b820191906000526020600020905b8154815290600101906020018083116117b057829003601f168201915b505050505081526020016003820160009054906101000a90046001600160a01b03166001600160a01b03166001600160a01b03168152602001600482015481526020016005820180548060200260200160405190810160405280929190818152602001828054801561186857602002820191906000526020600020905b81546001600160a01b0316815260019091019060200180831161184a575b50505050508152505090505b92915050565b60008451116118c45760405162461bcd60e51b81526020600482015260166024820152755469746c652063616e6e6f7420626520656d7074792160501b60448201526064016101a5565b60008351116119155760405162461bcd60e51b815260206004820152601c60248201527f4465736372697074696f6e2063616e6e6f7420626520656d707479210000000060448201526064016101a5565b60008551116119665760405162461bcd60e51b815260206004820152601a60248201527f496d6167652055524c2063616e6e6f7420626520656d7074792100000000000060448201526064016101a5565b600082116119c15760405162461bcd60e51b815260206004820152602260248201527f53746172742064617465206d7573742062652067726561746572207468616e20604482015261302160f01b60648201526084016101a5565b8181116119e05760405162461bcd60e51b81526004016101a590612341565b6119ee600080546001019055565b6119f6611b7c565b6000548152604081018590526060810184905260208101869052610100810183905261012081018290523360e0820152611a2e611b5d565b6101408201528051600090815260036020908152604090912082518155908201518291906001820190611a619082612413565b5060408201516002820190611a769082612413565b5060608201516003820190611a8b9082612413565b506080820151600482015560a0820151600582015560c082015160068201805460e08501516001600160a81b0319909116921515610100600160a81b031916929092176101006001600160a01b0390931683021790558201516007820155610120820151600882015561014082015160098201556101608201518051611b1b91600a840191602090910190611c2e565b506101808201518051611b3891600b840191602090910190611c93565b505090516000908152600260205260409020805460ff19166001179055505050505050565b6000611b6b426103e8612518565b611b77906103e861252f565b905090565b604051806101a0016040528060008152602001606081526020016060815260200160608152602001600081526020016000815260200160001515815260200160006001600160a01b0316815260200160008152602001600081526020016000815260200160608152602001606081525090565b6040518060c0016040528060008152602001606081526020016060815260200160006001600160a01b0316815260200160008152602001606081525090565b828054828255906000526020600020908101928215611c83579160200282015b82811115611c8357825182546001600160a01b0319166001600160a01b03909116178255602090920191600190910190611c4e565b50611c8f929150611ce5565b5090565b828054828255906000526020600020908101928215611cd9579160200282015b82811115611cd95782518290611cc99082612413565b5091602001919060010190611cb3565b50611c8f929150611cfa565b5b80821115611c8f5760008155600101611ce6565b80821115611c8f576000611d0e8282611d17565b50600101611cfa565b508054611d239061238a565b6000825580601f10611d33575050565b601f016020900490600052602060002090810190611d519190611ce5565b50565b634e487b7160e01b600052604160045260246000fd5b600082601f830112611d7b57600080fd5b813567ffffffffffffffff80821115611d9657611d96611d54565b604051601f8301601f19908116603f01168101908282118183101715611dbe57611dbe611d54565b81604052838152866020858801011115611dd757600080fd5b836020870160208301376000602085830101528094505050505092915050565b60008060008060008060c08789031215611e1057600080fd5b86359550602087013567ffffffffffffffff80821115611e2f57600080fd5b611e3b8a838b01611d6a565b96506040890135915080821115611e5157600080fd5b611e5d8a838b01611d6a565b95506060890135915080821115611e7357600080fd5b50611e8089828a01611d6a565b9350506080870135915060a087013590509295509295509295565b6000815180845260005b81811015611ec157602081850181015186830182015201611ea5565b506000602082860101526020601f19601f83011685010191505092915050565b600081518084526020808501945080840160005b83811015611f1a5781516001600160a01b031687529582019590820190600101611ef5565b509495945050505050565b600082825180855260208086019550808260051b84010181860160005b84811015611f7057601f19868403018952611f5e838351611e9b565b98840198925090830190600101611f42565b5090979650505050505050565b60006101a0825184526020830151816020860152611f9d82860182611e9b565b91505060408301518482036040860152611fb78282611e9b565b91505060608301518482036060860152611fd18282611e9b565b9150506080830151608085015260a083015160a085015260c0830151611ffb60c086018215159052565b5060e083015161201660e08601826001600160a01b03169052565b5061010083810151908501526101208084015190850152610140808401519085015261016080840151858303828701526120508382611ee1565b92505050610180808401518583038287015261206c8382611f25565b9695505050505050565b6000602080830181845280855180835260408601915060408160051b870101925083870160005b828110156120cb57603f198886030184526120b9858351611f7d565b9450928501929085019060010161209d565b5092979650505050505050565b6000602082840312156120ea57600080fd5b5035919050565b6020815260006121046020830184611f7d565b9392505050565b60008060006060848603121561212057600080fd5b83359250602084013567ffffffffffffffff8082111561213f57600080fd5b61214b87838801611d6a565b9350604086013591508082111561216157600080fd5b5061216e86828701611d6a565b9150509250925092565b6000806040838503121561218b57600080fd5b50508035926020909101359150565b805182526000602082015160c060208501526121b960c0850182611e9b565b9050604083015184820360408601526121d28282611e9b565b91505060018060a01b0360608401511660608501526080830151608085015260a083015184820360a08601526122088282611ee1565b95945050505050565b6000602080830181845280855180835260408601915060408160051b870101925083870160005b828110156120cb57603f1988860301845261225485835161219a565b94509285019290850190600101612238565b602081526000612104602083018461219a565b600080600080600060a0868803121561229157600080fd5b853567ffffffffffffffff808211156122a957600080fd5b6122b589838a01611d6a565b965060208801359150808211156122cb57600080fd5b6122d789838a01611d6a565b955060408801359150808211156122ed57600080fd5b506122fa88828901611d6a565b9598949750949560608101359550608001359392505050565b602080825260149082015273506f6c6c20646f6573206e6f742065786973742160601b604082015260600190565b60208082526029908201527f456e642064617465206d7573742062652067726561746572207468616e20737460408201526861727420646174652160b81b606082015260800190565b600181811c9082168061239e57607f821691505b6020821081036123be57634e487b7160e01b600052602260045260246000fd5b50919050565b601f82111561240e57600081815260208120601f850160051c810160208610156123eb5750805b601f850160051c820191505b8181101561240a578281556001016123f7565b5050505b505050565b815167ffffffffffffffff81111561242d5761242d611d54565b6124418161243b845461238a565b846123c4565b602080601f831160018114612476576000841561245e5750858301515b600019600386901b1c1916600185901b17855561240a565b600085815260208120601f198616915b828110156124a557888601518255948401946001909101908401612486565b50858210156124c35787850151600019600388901b60f8161c191681555b5050505050600190811b01905550565b634e487b7160e01b600052601160045260246000fd5b6000600182016124fb576124fb6124d3565b5060010190565b634e487b7160e01b600052603260045260246000fd5b8082028115828204841417611874576118746124d3565b80820180821115611874576118746124d356fea2646970667358221220df7cf7392c516322adc945ab10d66e706f97d67ea513eacb4dfef800f8cf18d064736f6c63430008110033",
  "linkReferences": {},
  "deployedLinkReferences": {}
}